{
  "contractName": "Ballot",
  "abi": [
    {
      "constant": true,
      "inputs": [
        {
          "name": "",
          "type": "uint256"
        }
      ],
      "name": "candidates",
      "outputs": [
        {
          "name": "candidateID",
          "type": "uint256"
        },
        {
          "name": "candidateName",
          "type": "string"
        },
        {
          "name": "candidateVotes",
          "type": "uint256"
        }
      ],
      "payable": false,
      "stateMutability": "view",
      "type": "function",
      "signature": "0x3477ee2e"
    },
    {
      "constant": true,
      "inputs": [],
      "name": "totalCandidates",
      "outputs": [
        {
          "name": "",
          "type": "uint256"
        }
      ],
      "payable": false,
      "stateMutability": "view",
      "type": "function",
      "signature": "0x3866965c"
    },
    {
      "constant": true,
      "inputs": [
        {
          "name": "",
          "type": "address"
        }
      ],
      "name": "voters",
      "outputs": [
        {
          "name": "",
          "type": "bool"
        }
      ],
      "payable": false,
      "stateMutability": "view",
      "type": "function",
      "signature": "0xa3ec138d"
    },
    {
      "inputs": [],
      "payable": false,
      "stateMutability": "nonpayable",
      "type": "constructor",
      "signature": "constructor"
    },
    {
      "anonymous": false,
      "inputs": [
        {
          "indexed": true,
          "name": "_id",
          "type": "uint256"
        }
      ],
      "name": "VotedEvent",
      "type": "event",
      "signature": "0xe447c5464cb203c1da94b4db8588d3cbf313ce4a489122f6b88e87f465b2810e"
    },
    {
      "constant": false,
      "inputs": [
        {
          "name": "_id",
          "type": "uint256"
        }
      ],
      "name": "candidateVote",
      "outputs": [],
      "payable": false,
      "stateMutability": "nonpayable",
      "type": "function",
      "signature": "0x67796a68"
    }
  ],
  "bytecode": "0x608060405234801561001057600080fd5b5061005e6040805190810160405280600681526020017f4d6f7274656e00000000000000000000000000000000000000000000000000008152506100fd640100000000026401000000009004565b6100ab6040805190810160405280600481526020017f4d616473000000000000000000000000000000000000000000000000000000008152506100fd640100000000026401000000009004565b6100f86040805190810160405280600681526020017f44656e6e697300000000000000000000000000000000000000000000000000008152506100fd640100000000026401000000009004565b61021d565b6001600260008282540192505081905550606060405190810160405280600254815260200182815260200160008152506000806002548152602001908152602001600020600082015181600001556020820151816001019080519060200190610167929190610178565b506040820151816002015590505050565b828054600181600116156101000203166002900490600052602060002090601f016020900481019282601f106101b957805160ff19168380011785556101e7565b828001600101855582156101e7579182015b828111156101e65782518255916020019190600101906101cb565b5b5090506101f491906101f8565b5090565b61021a91905b808211156102165760008160009055506001016101fe565b5090565b90565b6104048061022c6000396000f300608060405260043610610062576000357c0100000000000000000000000000000000000000000000000000000000900463ffffffff1680633477ee2e146100675780633866965c1461011b57806367796a6814610146578063a3ec138d14610173575b600080fd5b34801561007357600080fd5b50610092600480360381019080803590602001909291905050506101ce565b6040518084815260200180602001838152602001828103825284818151815260200191508051906020019080838360005b838110156100de5780820151818401526020810190506100c3565b50505050905090810190601f16801561010b5780820380516001836020036101000a031916815260200191505b5094505050505060405180910390f35b34801561012757600080fd5b50610130610290565b6040518082815260200191505060405180910390f35b34801561015257600080fd5b5061017160048036038101908080359060200190929190505050610296565b005b34801561017f57600080fd5b506101b4600480360381019080803573ffffffffffffffffffffffffffffffffffffffff1690602001909291905050506103b8565b604051808215151515815260200191505060405180910390f35b6000602052806000526040600020600091509050806000015490806001018054600181600116156101000203166002900480601f0160208091040260200160405190810160405280929190818152602001828054600181600116156101000203166002900480156102805780601f1061025557610100808354040283529160200191610280565b820191906000526020600020905b81548152906001019060200180831161026357829003601f168201915b5050505050908060020154905083565b60025481565b600160003373ffffffffffffffffffffffffffffffffffffffff1673ffffffffffffffffffffffffffffffffffffffff16815260200190815260200160002060009054906101000a900460ff161515156102ef57600080fd5b60008111801561030157506002548111155b151561030c57600080fd5b60018060003373ffffffffffffffffffffffffffffffffffffffff1673ffffffffffffffffffffffffffffffffffffffff16815260200190815260200160002060006101000a81548160ff02191690831515021790555060008082815260200190815260200160002060020160008154809291906001019190505550807fe447c5464cb203c1da94b4db8588d3cbf313ce4a489122f6b88e87f465b2810e60405160405180910390a250565b60016020528060005260406000206000915054906101000a900460ff16815600a165627a7a72305820296d718f1f376ce39a9b33bc2030b5891975caa34585c7e584466b3c61aa352c0029",
  "source": "pragma solidity 0.4.25;\n\ncontract Ballot {\n\n    //Defining a Candidate\n    struct Candidate {\n        uint candidateID;\n        string candidateName;\n        uint candidateVotes;\n    }\n\n    //Mapping of both candidates and voters\n    //Both stores each representive key type and value type\n    mapping(uint => Candidate) public candidates;\n    mapping(address => bool) public voters;\n\n    //Amount of candidates\n    uint public totalCandidates;\n\n\n    //Function to add new candidates\n    function newCandidate(string _name) private {\n        totalCandidates+=1;\n        candidates[totalCandidates] = Candidate(totalCandidates, _name, 0);\n    }\n\n    //Function for voting on a candidate\n    function candidateVote (uint _id) public {\n        //Requires a voter not to have already voted\n        require(!voters[msg.sender]);\n        //Needs a valid candidate for the voter to vote\n        require(_id > 0 && _id <= totalCandidates);\n\n        //Voter has now voted\n        voters[msg.sender] = true;\n\n        //Updates the number of votes for the candidate voted for\n        candidates[_id].candidateVotes++;\n\n        //Triggering the voted event\n        emit VotedEvent(_id);\n    }\n\n    event VotedEvent (uint indexed _id);\n\n    //Constructor - Initialize new candidates to vote for\n    constructor () public {\n        newCandidate(\"Morten\");\n        newCandidate(\"Mads\");\n        newCandidate(\"Dennis\");\n    }\n\n}\n",
  "sourcePath": "/home/mutten/Desktop/Ethereum-voting-bachelor/contracts/Ballot.sol",
  "compiler": {
    "name": "solc",
    "version": "0.4.25+commit.59dbf8f1.Emscripten.clang"
  },
  "schemaVersion": "3.0.0-beta.0",
  "updatedAt": "2019-05-30T00:42:04.467Z"
}