{
  "contractName": "Ballot",
  "abi": [
    {
      "constant": true,
      "inputs": [
        {
          "name": "",
          "type": "uint256"
        }
      ],
      "name": "candidates",
      "outputs": [
        {
          "name": "candidateID",
          "type": "uint256"
        },
        {
          "name": "candidateName",
          "type": "string"
        },
        {
          "name": "candidateVotes",
          "type": "uint256"
        }
      ],
      "payable": false,
      "stateMutability": "view",
      "type": "function",
      "signature": "0x3477ee2e"
    },
    {
      "constant": true,
      "inputs": [],
      "name": "totalCandidates",
      "outputs": [
        {
          "name": "",
          "type": "uint256"
        }
      ],
      "payable": false,
      "stateMutability": "view",
      "type": "function",
      "signature": "0x3866965c"
    },
    {
      "constant": true,
      "inputs": [],
      "name": "owner",
      "outputs": [
        {
          "name": "",
          "type": "address"
        }
      ],
      "payable": false,
      "stateMutability": "view",
      "type": "function",
      "signature": "0x8da5cb5b"
    },
    {
      "constant": true,
      "inputs": [
        {
          "name": "",
          "type": "address"
        }
      ],
      "name": "voters",
      "outputs": [
        {
          "name": "authorized",
          "type": "bool"
        },
        {
          "name": "voted",
          "type": "bool"
        },
        {
          "name": "vote",
          "type": "uint256"
        }
      ],
      "payable": false,
      "stateMutability": "view",
      "type": "function",
      "signature": "0xa3ec138d"
    },
    {
      "inputs": [],
      "payable": false,
      "stateMutability": "nonpayable",
      "type": "constructor",
      "signature": "constructor"
    },
    {
      "anonymous": false,
      "inputs": [
        {
          "indexed": true,
          "name": "_id",
          "type": "uint256"
        }
      ],
      "name": "VotedEvent",
      "type": "event",
      "signature": "0xe447c5464cb203c1da94b4db8588d3cbf313ce4a489122f6b88e87f465b2810e"
    },
    {
      "constant": false,
      "inputs": [
        {
          "name": "_name",
          "type": "string"
        }
      ],
      "name": "newCandidate",
      "outputs": [],
      "payable": false,
      "stateMutability": "nonpayable",
      "type": "function",
      "signature": "0xc970e891"
    },
    {
      "constant": false,
      "inputs": [
        {
          "name": "_person",
          "type": "address"
        }
      ],
      "name": "authorize",
      "outputs": [],
      "payable": false,
      "stateMutability": "nonpayable",
      "type": "function",
      "signature": "0xb6a5d7de"
    },
    {
      "constant": false,
      "inputs": [
        {
          "name": "_id",
          "type": "uint256"
        }
      ],
      "name": "candidateVote",
      "outputs": [],
      "payable": false,
      "stateMutability": "nonpayable",
      "type": "function",
      "signature": "0x67796a68"
    },
    {
      "constant": false,
      "inputs": [],
      "name": "endElection",
      "outputs": [],
      "payable": false,
      "stateMutability": "nonpayable",
      "type": "function",
      "signature": "0x59f78468"
    }
  ],
  "bytecode": "0x608060405234801561001057600080fd5b5033600360006101000a81548173ffffffffffffffffffffffffffffffffffffffff021916908373ffffffffffffffffffffffffffffffffffffffff16021790555061092f806100616000396000f30060806040526004361061008e576000357c0100000000000000000000000000000000000000000000000000000000900463ffffffff1680633477ee2e146100935780633866965c1461014757806359f784681461017257806367796a68146101895780638da5cb5b146101b6578063a3ec138d1461020d578063b6a5d7de1461027a578063c970e891146102bd575b600080fd5b34801561009f57600080fd5b506100be60048036038101908080359060200190929190505050610326565b6040518084815260200180602001838152602001828103825284818151815260200191508051906020019080838360005b8381101561010a5780820151818401526020810190506100ef565b50505050905090810190601f1680156101375780820380516001836020036101000a031916815260200191505b5094505050505060405180910390f35b34801561015357600080fd5b5061015c6103e8565b6040518082815260200191505060405180910390f35b34801561017e57600080fd5b506101876103ee565b005b34801561019557600080fd5b506101b460048036038101908080359060200190929190505050610485565b005b3480156101c257600080fd5b506101cb610658565b604051808273ffffffffffffffffffffffffffffffffffffffff1673ffffffffffffffffffffffffffffffffffffffff16815260200191505060405180910390f35b34801561021957600080fd5b5061024e600480360381019080803573ffffffffffffffffffffffffffffffffffffffff16906020019092919050505061067e565b604051808415151515815260200183151515158152602001828152602001935050505060405180910390f35b34801561028657600080fd5b506102bb600480360381019080803573ffffffffffffffffffffffffffffffffffffffff1690602001909291905050506106c2565b005b3480156102c957600080fd5b50610324600480360381019080803590602001908201803590602001908080601f0160208091040260200160405190810160405280939291908181526020018383808284378201915050505050509192919290505050610781565b005b6000602052806000526040600020600091509050806000015490806001018054600181600116156101000203166002900480601f0160208091040260200160405190810160405280929190818152602001828054600181600116156101000203166002900480156103d85780601f106103ad576101008083540402835291602001916103d8565b820191906000526020600020905b8154815290600101906020018083116103bb57829003601f168201915b5050505050908060020154905083565b60025481565b600360009054906101000a900473ffffffffffffffffffffffffffffffffffffffff1673ffffffffffffffffffffffffffffffffffffffff163373ffffffffffffffffffffffffffffffffffffffff1614151561044a57600080fd5b600360009054906101000a900473ffffffffffffffffffffffffffffffffffffffff1673ffffffffffffffffffffffffffffffffffffffff16ff5b600160003373ffffffffffffffffffffffffffffffffffffffff1673ffffffffffffffffffffffffffffffffffffffff16815260200190815260200160002060000160019054906101000a900460ff161515156104e157600080fd5b600160003373ffffffffffffffffffffffffffffffffffffffff1673ffffffffffffffffffffffffffffffffffffffff16815260200190815260200160002060000160009054906101000a900460ff16151561053c57600080fd5b60008111801561054e57506002548111155b151561055957600080fd5b6000808281526020019081526020016000206002016000815480929190600101919050555060018060003373ffffffffffffffffffffffffffffffffffffffff1673ffffffffffffffffffffffffffffffffffffffff16815260200190815260200160002060000160016101000a81548160ff02191690831515021790555060018060003373ffffffffffffffffffffffffffffffffffffffff1673ffffffffffffffffffffffffffffffffffffffff16815260200190815260200160002060010160008282540192505081905550807fe447c5464cb203c1da94b4db8588d3cbf313ce4a489122f6b88e87f465b2810e60405160405180910390a250565b600360009054906101000a900473ffffffffffffffffffffffffffffffffffffffff1681565b60016020528060005260406000206000915090508060000160009054906101000a900460ff16908060000160019054906101000a900460ff16908060010154905083565b60001515600160008373ffffffffffffffffffffffffffffffffffffffff1673ffffffffffffffffffffffffffffffffffffffff16815260200190815260200160002060000160009054906101000a900460ff16151514151561072457600080fd5b60018060008373ffffffffffffffffffffffffffffffffffffffff1673ffffffffffffffffffffffffffffffffffffffff16815260200190815260200160002060000160006101000a81548160ff02191690831515021790555050565b60011515600160003373ffffffffffffffffffffffffffffffffffffffff1673ffffffffffffffffffffffffffffffffffffffff16815260200190815260200160002060000160009054906101000a900460ff1615151415156107e357600080fd5b600160026000828254019250508190555060606040519081016040528060025481526020018281526020016000815250600080600254815260200190815260200160002060008201518160000155602082015181600101908051906020019061084d92919061085e565b506040820151816002015590505050565b828054600181600116156101000203166002900490600052602060002090601f016020900481019282601f1061089f57805160ff19168380011785556108cd565b828001600101855582156108cd579182015b828111156108cc5782518255916020019190600101906108b1565b5b5090506108da91906108de565b5090565b61090091905b808211156108fc5760008160009055506001016108e4565b5090565b905600a165627a7a723058202a1a5d6e18167e4e9bb7782d03045d13ffc97d48fd6d482eb82a923e78c704a70029",
  "source": "pragma solidity 0.4.25;\n\ncontract Ballot {\n\n    //Defining a Candidate\n    struct Candidate {\n        uint candidateID;\n        string candidateName;\n        uint candidateVotes;\n    }\n\n    struct Voter {\n        bool authorized;\n        bool voted;\n        uint vote;\n    }\n\n    //Mapping of both candidates and voters\n    //Both stores each representive key type and value type\n    mapping(uint => Candidate) public candidates;\n    mapping(address => Voter) public voters;\n\n    //Amount of candidates\n    uint public totalCandidates;\n    address public owner;\n\n    modifier ownerOnly(){\n        require(msg.sender == owner);\n        _;\n    }\n\n    //Function to add new candidates\n    function newCandidate(string _name) public {\n        require(voters[msg.sender].authorized == true);\n        totalCandidates += 1;\n        candidates[totalCandidates] = Candidate(totalCandidates, _name, 0);\n    }\n\n    function authorize(address _person) public {\n        require(voters[_person].authorized == false);\n        voters[_person].authorized = true;\n    }\n\n\n    //Function for voting on a candidate\n    function candidateVote(uint _id) public {\n        //Requires a voter not to have already voted\n        require(!voters[msg.sender].voted);\n        require(voters[msg.sender].authorized);\n        //Needs a valid candidate for the voter to vote\n        require(_id > 0 && _id <= totalCandidates);\n\n\n        //Updates the number of votes for the candidate voted for\n        candidates[_id].candidateVotes++;\n\n        voters[msg.sender].voted = true;\n        voters[msg.sender].vote += 1;\n\n        //Triggering the voted event\n        emit VotedEvent(_id);\n    }\n\n    event VotedEvent (uint indexed _id);\n\n    //Constructor - Initialize new candidates to vote for\n    constructor () public {\n        owner = msg.sender;\n/*        newCandidate(\"Morten\");\n        newCandidate(\"Mads\");\n        newCandidate(\"Dennis\");\n        newCandidate(\"Lasse\");\n        newCandidate(\"Hellen\");*/\n        //authorize(0xea978991fbfa2ea664163d8e193c99a33c332bd9);\n    }\n\n    function endElection() ownerOnly public {\n        selfdestruct(owner);\n    }\n\n}\n",
  "sourcePath": "/home/mutten/Desktop/Ethereum-voting-bachelor/contracts/Ballot.sol",
  "compiler": {
    "name": "solc",
    "version": "0.4.25+commit.59dbf8f1.Emscripten.clang"
  },
  "schemaVersion": "3.0.0-beta.0",
  "updatedAt": "2019-06-01T00:27:03.631Z"
}