{
  "contractName": "Ballot",
  "abi": [
    {
      "constant": true,
      "inputs": [
        {
          "name": "",
          "type": "uint256"
        }
      ],
      "name": "candidates",
      "outputs": [
        {
          "name": "candidateID",
          "type": "uint256"
        },
        {
          "name": "candidateName",
          "type": "string"
        },
        {
          "name": "candidateVotes",
          "type": "uint256"
        }
      ],
      "payable": false,
      "stateMutability": "view",
      "type": "function",
      "signature": "0x3477ee2e"
    },
    {
      "constant": true,
      "inputs": [],
      "name": "totalCandidates",
      "outputs": [
        {
          "name": "",
          "type": "uint256"
        }
      ],
      "payable": false,
      "stateMutability": "view",
      "type": "function",
      "signature": "0x3866965c"
    },
    {
      "constant": true,
      "inputs": [],
      "name": "owner",
      "outputs": [
        {
          "name": "",
          "type": "address"
        }
      ],
      "payable": false,
      "stateMutability": "view",
      "type": "function",
      "signature": "0x8da5cb5b"
    },
    {
      "constant": true,
      "inputs": [
        {
          "name": "",
          "type": "address"
        }
      ],
      "name": "voters",
      "outputs": [
        {
          "name": "authorized",
          "type": "bool"
        },
        {
          "name": "voted",
          "type": "bool"
        },
        {
          "name": "vote",
          "type": "uint256"
        }
      ],
      "payable": false,
      "stateMutability": "view",
      "type": "function",
      "signature": "0xa3ec138d"
    },
    {
      "inputs": [],
      "payable": false,
      "stateMutability": "nonpayable",
      "type": "constructor",
      "signature": "constructor"
    },
    {
      "anonymous": false,
      "inputs": [
        {
          "indexed": true,
          "name": "_id",
          "type": "uint256"
        }
      ],
      "name": "VotedEvent",
      "type": "event",
      "signature": "0xe447c5464cb203c1da94b4db8588d3cbf313ce4a489122f6b88e87f465b2810e"
    },
    {
      "constant": false,
      "inputs": [
        {
          "name": "_person",
          "type": "address"
        }
      ],
      "name": "authorize",
      "outputs": [],
      "payable": false,
      "stateMutability": "nonpayable",
      "type": "function",
      "signature": "0xb6a5d7de"
    },
    {
      "constant": false,
      "inputs": [
        {
          "name": "_id",
          "type": "uint256"
        }
      ],
      "name": "candidateVote",
      "outputs": [],
      "payable": false,
      "stateMutability": "nonpayable",
      "type": "function",
      "signature": "0x67796a68"
    },
    {
      "constant": false,
      "inputs": [],
      "name": "endElection",
      "outputs": [],
      "payable": false,
      "stateMutability": "nonpayable",
      "type": "function",
      "signature": "0x59f78468"
    }
  ],
  "bytecode": "0x608060405234801561001057600080fd5b5033600360006101000a81548173ffffffffffffffffffffffffffffffffffffffff021916908373ffffffffffffffffffffffffffffffffffffffff16021790555061009f6040805190810160405280600681526020017f4d6f7274656e000000000000000000000000000000000000000000000000000081525061013e640100000000026401000000009004565b6100ec6040805190810160405280600481526020017f4d6164730000000000000000000000000000000000000000000000000000000081525061013e640100000000026401000000009004565b6101396040805190810160405280600681526020017f44656e6e6973000000000000000000000000000000000000000000000000000081525061013e640100000000026401000000009004565b61025e565b60016002600082825401925050819055506060604051908101604052806002548152602001828152602001600081525060008060025481526020019081526020016000206000820151816000015560208201518160010190805190602001906101a89291906101b9565b506040820151816002015590505050565b828054600181600116156101000203166002900490600052602060002090601f016020900481019282601f106101fa57805160ff1916838001178555610228565b82800160010185558215610228579182015b8281111561022757825182559160200191906001019061020c565b5b5090506102359190610239565b5090565b61025b91905b8082111561025757600081600090555060010161023f565b5090565b90565b6107338061026d6000396000f300608060405260043610610083576000357c0100000000000000000000000000000000000000000000000000000000900463ffffffff1680633477ee2e146100885780633866965c1461013c57806359f784681461016757806367796a681461017e5780638da5cb5b146101ab578063a3ec138d14610202578063b6a5d7de1461026f575b600080fd5b34801561009457600080fd5b506100b3600480360381019080803590602001909291905050506102b2565b6040518084815260200180602001838152602001828103825284818151815260200191508051906020019080838360005b838110156100ff5780820151818401526020810190506100e4565b50505050905090810190601f16801561012c5780820380516001836020036101000a031916815260200191505b5094505050505060405180910390f35b34801561014857600080fd5b50610151610374565b6040518082815260200191505060405180910390f35b34801561017357600080fd5b5061017c61037a565b005b34801561018a57600080fd5b506101a960048036038101908080359060200190929190505050610411565b005b3480156101b757600080fd5b506101c06105e4565b604051808273ffffffffffffffffffffffffffffffffffffffff1673ffffffffffffffffffffffffffffffffffffffff16815260200191505060405180910390f35b34801561020e57600080fd5b50610243600480360381019080803573ffffffffffffffffffffffffffffffffffffffff16906020019092919050505061060a565b604051808415151515815260200183151515158152602001828152602001935050505060405180910390f35b34801561027b57600080fd5b506102b0600480360381019080803573ffffffffffffffffffffffffffffffffffffffff16906020019092919050505061064e565b005b6000602052806000526040600020600091509050806000015490806001018054600181600116156101000203166002900480601f0160208091040260200160405190810160405280929190818152602001828054600181600116156101000203166002900480156103645780601f1061033957610100808354040283529160200191610364565b820191906000526020600020905b81548152906001019060200180831161034757829003601f168201915b5050505050908060020154905083565b60025481565b600360009054906101000a900473ffffffffffffffffffffffffffffffffffffffff1673ffffffffffffffffffffffffffffffffffffffff163373ffffffffffffffffffffffffffffffffffffffff161415156103d657600080fd5b600360009054906101000a900473ffffffffffffffffffffffffffffffffffffffff1673ffffffffffffffffffffffffffffffffffffffff16ff5b600160003373ffffffffffffffffffffffffffffffffffffffff1673ffffffffffffffffffffffffffffffffffffffff16815260200190815260200160002060000160019054906101000a900460ff1615151561046d57600080fd5b600160003373ffffffffffffffffffffffffffffffffffffffff1673ffffffffffffffffffffffffffffffffffffffff16815260200190815260200160002060000160009054906101000a900460ff1615156104c857600080fd5b6000811180156104da57506002548111155b15156104e557600080fd5b6000808281526020019081526020016000206002016000815480929190600101919050555060018060003373ffffffffffffffffffffffffffffffffffffffff1673ffffffffffffffffffffffffffffffffffffffff16815260200190815260200160002060000160016101000a81548160ff02191690831515021790555060018060003373ffffffffffffffffffffffffffffffffffffffff1673ffffffffffffffffffffffffffffffffffffffff16815260200190815260200160002060010160008282540192505081905550807fe447c5464cb203c1da94b4db8588d3cbf313ce4a489122f6b88e87f465b2810e60405160405180910390a250565b600360009054906101000a900473ffffffffffffffffffffffffffffffffffffffff1681565b60016020528060005260406000206000915090508060000160009054906101000a900460ff16908060000160019054906101000a900460ff16908060010154905083565b600360009054906101000a900473ffffffffffffffffffffffffffffffffffffffff1673ffffffffffffffffffffffffffffffffffffffff163373ffffffffffffffffffffffffffffffffffffffff161415156106aa57600080fd5b60018060008373ffffffffffffffffffffffffffffffffffffffff1673ffffffffffffffffffffffffffffffffffffffff16815260200190815260200160002060000160006101000a81548160ff021916908315150217905550505600a165627a7a7230582044da3d2af334bf17c0db87dace9c246f1d522616c473c58ce053616d60ffa58d0029",
  "source": "pragma solidity 0.4.25;\n\ncontract Ballot {\n\n    //Defining a Candidate\n    struct Candidate {\n        uint candidateID;\n        string candidateName;\n        uint candidateVotes;\n    }\n\n    struct Voter {\n        bool authorized;\n        bool voted;\n        uint vote;\n    }\n\n    //Mapping of both candidates and voters\n    //Both stores each representive key type and value type\n    mapping(uint => Candidate) public candidates;\n    mapping(address => Voter) public voters;\n\n    //Amount of candidates\n    uint public totalCandidates;\n    address public owner;\n\n    modifier ownerOnly(){\n        require(msg.sender == owner);\n        _;\n    }\n\n    //Function to add new candidates\n    function newCandidate(string _name) private {\n        totalCandidates+=1;\n        candidates[totalCandidates] = Candidate(totalCandidates, _name, 0);\n    }\n\n    function authorize(address _person) ownerOnly public {\n        voters[_person].authorized = true;\n    }\n\n\n    //Function for voting on a candidate\n    function candidateVote (uint _id) public {\n        //Requires a voter not to have already voted\n        require(!voters[msg.sender].voted);\n        require(voters[msg.sender].authorized);\n        //Needs a valid candidate for the voter to vote\n        require(_id > 0 && _id <= totalCandidates);\n\n\n        //Updates the number of votes for the candidate voted for\n        candidates[_id].candidateVotes++;\n\n        voters[msg.sender].voted = true;\n        voters[msg.sender].vote+=1;\n\n        //Triggering the voted event\n        emit VotedEvent(_id);\n    }\n\n    event VotedEvent (uint indexed _id);\n\n    //Constructor - Initialize new candidates to vote for\n    constructor () public {\n        owner = msg.sender;\n        newCandidate(\"Morten\");\n        newCandidate(\"Mads\");\n        newCandidate(\"Dennis\");\n        //authorize(0xea978991fbfa2ea664163d8e193c99a33c332bd9);\n    }\n\n    function endElection() ownerOnly public {\n        selfdestruct(owner);\n    }\n\n}\n",
  "sourcePath": "/home/mutten/Desktop/Ethereum-voting-bachelor/contracts/Ballot.sol",
  "compiler": {
    "name": "solc",
    "version": "0.4.25+commit.59dbf8f1.Emscripten.clang"
  },
  "schemaVersion": "3.0.0-beta.0",
  "updatedAt": "2019-05-31T01:15:27.825Z"
}